:10000000F92FFF1B0B2883137F1883170008840A1E
:100010000319FF0A080000308A000408840A8207D6
:1000200000344234613463346B344C3469346734A3
:1000300068347434203420340034433472346534EA
:100040006434693474346F342034203420342034E0
:100050000034523469346334613472346934633443
:100060006134203420342034003453347034653407
:1000700067346E3469342034203420342034203402
:1000800000340034003400340034003400340034D0
:10009000003400340034003400343034313432342D
:1000A00033343434353436343734383439344134F5
:1000B000423443344434453446340034203420340C
:1000C0002034203420342034203420342034203490
:1000D0002034203400340034433469342034733401
:1000E0006F346E346F34203400340034533463344E
:1000F0007234693476346F3420340034003446343A
:100100006134743474346F342E3400340034433426
:100110006834653463346B3400340034FC2E052FAE
:040120001D2F322F2E
:10014A000030BD280C30860408006F088312860030
:10015A000800FD00A5207D08CA2C0030F101F2013B
:10016A00F20A412EF700F101F10AF2000030412EA5
:10017A00F700F1017F398038F2000030412EF70094
:10018A00F1013F394038F2000030412EF000831669
:10019A0003139B001C141A080800F90078080319B5
:1001AA00D8287908B7285F30B72864008001840A04
:1001BA000406031900340406DB28F800F1010310D1
:1001CA00780D77040438F2000030412EF1009B00CC
:1001DA0070089A001C1555309D00AA309D009C1489
:1001EA000800FA00B220A5205C30F8008030F9003F
:1001FA004B217A08F800F9014B29F4000830F50080
:10020A007508FF3EF00074086823F50375080319A2
:10021A0008000529FA007808F90006300310F90DDC
:10022A00FF3E031D13297A087907BF3EBD28F00057
:10023A007008031DEF170319EF13AA20700883161D
:10024A00031D8617031986130800F200F1017008CE
:10025A007218F1070310F00D0310F20C7208031D57
:10026A002C29710808007730F8008030F9004B21FA
:10027A000D30FC00AF30FB00C130FA00FA0B432905
:10028A00FB0B4329FC0B4329000008007908831261
:10029A000313FF00780884000120003A03190800BC
:1002AA007908FF00780884000120B720F80A0319AA
:1002BA00F90A4B29F50001301A2300301A230130BC
:1002CA001A2300301A230330F6007608FF3EF000A6
:1002DA0075086823F60B6A2974081A2B8316031308
:1002EA00EF13AA20831686130230F2004530F1007C
:1002FA00A930F000F00B7F29F10B7F29F20B7F293F
:10030A008629080083160313EE136E136E10E1306C
:10031A00EE056E08831285008316851305130510F2
:10032A00E13085056D30F000F00B99299C29080011
:10033A008316031305146D30F000F00BA229A529CA
:10034A00831603136E106E08831285008316051038
:10035A006D30F000F00BAF29B2290800FB00F10163
:10036A007708F9000310F90D7B08FA000130031031
:10037A00FA0DFF3E0310031DBD297A0D7904780496
:10038A000838F2000030412EF4000830F3007408F7
:10039A00840083130310800D74088400D42283130D
:1003AA008004F30BCC297208031DDD2900301A2BB7
:1003BA0001301A2B8316A8236D30F100F10BE329C3
:1003CA00E629831603136E08E1390638B423063882
:1003DA0085006D30F100F10BF029F3299D21872961
:1003EA000C3083168604A630F000F00BFA290000C0
:1003FA00831603133923A630F000F00B022A0000FB
:10040A003023A630F000F00B082A00000800FB0099
:10041A00F1017808F9000310F90D0310F90D7708B6
:10042A00FA000310FA0D0310FA0D0310FA0D7B0EF1
:10043A00F0397A0479042038F2000030412EA00005
:10044A000230F8000E300F217D08F8000130F8055F
:10045A00831203132008D2207D08F8000230F80521
:10046A007B08D2207D08F8000430F8057C08D228E1
:10047A00FC0026088400831380012308F70026085D
:10048A00F8007C089422831203132608840083133D
:10049A000008031D08002408F7002508F8002608AC
:1004AA00F9007C08532C0030FA01C420F901FA0142
:1004BA007908F8000310F80D0310F80D0310F80D71
:1004CA007A087807CB20B7200830FA0A7A02031C88
:1004DA005D2A0530F90A7902031808005C2AF3300C
:1004EA0083160313EF056F0883128600F330831611
:1004FA008605A630F000F00B802A0000831603134D
:10050A000615A630F000F00B882A000083160313A4
:10051A008615A630F000F00B902A00000800F900BA
:10052A00780884008001F521F40179085F21D4223A
:10053A00FA007A080319A72A78088400023083137C
:10054A008000080077080221D422FA007A080319E9
:10055A00080078088400033083138000742A831209
:10056A000313060E0739073A031DC52A8230F10024
:10057A00DD30F000F00BBF2AF10BBF2AC42AB42ADF
:10058A008230F100DD30F000F00BC92AF10BC92AE4
:10059A00CE2A83120313060E0739F200080030230D
:1005AA008615A630F000F00BD82A00008316031334
:1005BA000615A630F000F00BE02A00000030831286
:1005CA00031386190130F10083166F116F08831225
:1005DA00860083160611A630F000F00BF22A0000FE
:1005EA0071080800A8004430A3002708A4000430BA
:1005FA00A5004430A60000303D22831203134408AC
:10060A00031D08002808F00027089F2528088400F1
:10061A0011232708FD00942E0008FA00840A000816
:10062A00FB00840A0008FC000800F1003023A63011
:10063A00F000F00B1E2B0000710883160313031D34
:10064A00282B3923292B86150615A630F000F00B26
:10065A002C2B00000800831603136F116F088312F6
:10066A008600831606110800EF116F0883128600B0
:10067A00831686110800A400A601230884008001BD
:10068A002008F7002308F800240894228312031391
:10069A00A601220826020318652B26082107FB005B
:1006AA008400831300080221D42283120313A500B5
:1006BA0025080319662B230884000430831380005D
:1006CA00742AA60A4E2BF2003023A630F100F10B51
:1006DA006C2B00000130F100700A752B0310F10D2C
:1006EA00FF3E031D732B7108F3007208F3057308AC
:1006FA0083160313031D832B3923842B8615A630F7
:10070A00F100F10B862B0000831603130615A630A1
:10071A00F100F10B8E2B000008008316A8236D3020
:10072A00F100F10B962B992B831603136E08E1390E
:10073A000438B423043885006D30F100F10BA32B83
:10074A00A62B9D2187290313EE136E136E106E08D4
:10075A008312850083168513051305100800EE0021
:10076A006E088312850083160508E1390800A00186
:10077A00E2237B08A000A40121080F39A007043056
:10078A000310A30CA20CA10CFF3E031DC52BA40A47
:10079A002408803A7A3E031CC12BFF30A006E223CC
:1007AA000330A4002130F00024087C07F100203037
:1007BA00EF25A403A41B0800D72B7808A100790809
:1007CA00A2007A08A30008007208710470040319D1
:1007DA00132CF601F60AF21BF72B0310F00DF10D9C
:1007EA00F20DEF2B72087502031D012C71087402B9
:1007FA00031D012C70087302031C0E2C7008F302EF
:10080A007108031C710FF4027208031C720AF502C4
:10081A000310F20CF10CF00CF60BF72B7308F00036
:10082A007408F1007508F2000800F601F701F801F2
:10083A0072087104700403194C2CF901F90AF21BAD
:10084A002B2C0310F00DF10DF20D232C0310F60DD5
:10085A00F70DF80D72087502031D392C7108740220
:10086A00031D392C70087302031C472C7008F3020D
:10087A007108031C710FF4027208031C720AF50254
:10088A0076140310F20CF10CF00CF90B2B2C7608F1
:10089A00F0007708F1007808F2000800A000A20131
:1008AA00790884008001F521F401F40A8312031304
:1008BA0020085F21D42283120313A10021080319FF
:1008CA006C2C79088400023083138000742AA201F8
:1008DA007808FF3EFA00FF3003180030FB00803A28
:1008EA00803C031D7A2C7A082202F2010318832C19
:1008FA008724C92183120313A20A6D2CF20A8724C2
:10090A00C9216B2C83120313220877070800872159
:10091A001530FD00C630FC00FC0B912CFD0B912C10
:10092A000000DF210730FD007D30FC00FC0B9B2C12
:10093A00FD0B9B2CDF210730FD007D30FC00FC0BFA
:10094A00A42CFD0BA42CDF214230FC00FC0BAB2CA9
:10095A00000092230030F701F70AF8010C22003058
:10096A00F701F70AF801B321B2200130F701E220BA
:10097A000130F701F70AF801B3210030BD206D30CC
:10098A00FC00FC0BC62CC92C0800FB00FC01FC0176
:10099A007C08013EF80001300F217B088400831394
:1009AA0000087C04803A7C3E0318FF2C7C088312E2
:1009BA000313A000A101A01BA1037B08840001303E
:1009CA000005A200A30121082306031DEE2C20081E
:1009DA002206031DF22C3E30F32C2030B7200C30B7
:1009EA00F0007B08840083130008FE397C042A2166
:1009FA00013E002D4E30F8008030F9004B21FC0AF0
:100A0A007C08803A7E3E03180800CD2CFF308316FE
:100A1A00850086008B13073083129F0483169F1369
:100A2A00A7208C24582273217830CB201C218312D2
:100A3A00B6013630AE2048252422B422B500482516
:100A4A0024222E2DB6033E2DB60A3E2D3630FA2626
:100A5A003E2D831203133508033A03192B2D063A48
:100A6A000319292D033A0319272D013A03193E2D9B
:100A7A003E2D3608803A7C3E0318B601B61F1E2D5D
:100A8A000330B6001E2D0230FB000430FC00060EB7
:100A9A000739FD000334B220A5206630F800803003
:100AAA00F9004B212708FA002808FB002908FC0056
:100ABA003730FD0094263730F800F9014B21023017
:100ACA00F80001300F21443083120313AC00932D38
:100ADA004408031D972D2708F8002808F90029085B
:100AEA00FA002C08FB003730FC00BC232C08A000BD
:100AFA003730A1000430A2004430A3000030402364
:100B0A00073083120313AB007D30AA00AA0B8B2D8A
:100B1A00AB0B8B2D103083120313AC0755302C020C
:100B2A00031C6D2D4408031D08006F30F800803047
:100B3A00F9004B29F900FB01700884000430831383
:100B4A008001840A8001840A8001FA00FB01D92508
:100B5A0002300310F10DF20DF30DFF3E031DAE2D11
:100B6A00E425D9257B087907F40084000008F500FC
:100B7A007A0AC12D0310F50CFF3E031DBF2D75081F
:100B8A000339F600F701F801F1047708F20478084E
:100B9A00F304E4250430FB0A7B02031CAC2DFE306F
:100BAA00FA07FA1B0800AB2D700884000008F10050
:100BBA00840A0008F200840A0008F300080070089A
:100BCA00840071088000840A72088000840A73080D
:100BDA0080000800F6007108840083138001710800
:100BEA0084000008F20076088400000803397204C1
:100BFA00F3007108840073088000760884000008F6
:100C0A00F2000310F20C0310F20C7208F3007608DB
:100C1A008400730880000230F70077087007F2003A
:100C2A00840003300005F300710884000008F40012
:100C3A0001300310F40DFF3E0310031D1F2E740D27
:100C4A007304F5007108840075088000770870073E
:100C5A00F20084000008F3000310F30C0310F30CF5
:100C6A007308F40077087007F500840074088000A0
:100C7A00F703F71B0800122EF400F6017408831616
:100C8A000313031DEE170319EE137108031D6E17E4
:100C9A0003196E136E106E0883128500740883168A
:100CAA00031D8517031985137108031D05170319F9
:100CBA00051305106D30F300F30B612E642E04301A
:100CCA00F6007208F300760A6C2E0310F30CFF3E4E
:100CDA00031D6A2E7308F5000F30F5057508F30039
:100CEA00F30D831603136E087306E1397306EE00DB
:100CFA006E08831285007508F300F30D8316050844
:100D0A007306E139730685006D30F300F30B8B2E01
:100D1A008E2E9D21FC30F607F61F662E8729A0012C
:100D2A007A08A1007B08A2007C08A3000A30F00020
:100D3A00F101F2012108F3002208F4002308F5006A
:100D4A001A247008A1007108A2007208A300FD0A03
:100D5A0022042104031D9B2EFD0AFD0A7D0884003E
:100D6A0083138001FD037D0884008001800AFD034E
:100D7A0002302006031DC72E7D0884002E30800015
:100D8A00FD03A00A0A30F000F101F2017A08F3002B
:100D9A007B08F4007C08F500E9237008A4000A30F7
:100DAA00F000F101F2017A08F3007B08F4007C08F4
:100DBA00F5001A247008FA007108FB007208FC009A
:100DCA000A302402031CEB2E0730A4073030A40794
:100DDA007D088400240883138000FD03A00A7C0890
:100DEA007B047A0403190800BD2EB000532F831622
:100DFA00EF1F022F00301C21612F01301C21612FAF
:100E0A003730A7004130F7224408031D1B2F373023
:100E1A00F6200D30AF00AF30AE00C130AD00AD0BE3
:100E2A00142FAE0B142FAF0B142F0000B220612F1A
:100E3A003730A7004130F7224408031D1B2F3730F3
:100E4A00F6203730A50041306B274108A700420839
:100E5A00A8004308A90050250E2F00308316861BD0
:100E6A000130F0007830EB2000301C210030F7010F
:100E7A00F801B3216D3083120313AD00AD0B432F7C
:100E8A00462F1E308316031385040514051785178C
:100E9A00703086040C3086046300612F30088400A9
:100EAA00831300088400043004020318612F003001
:100EBA008A008E3004078200831203134408031940
:100ECA000800382183120313C4010800AB00AA01E9
:100EDA008400E830831380000330840A8000840A87
:100EEA0080010230AA00B12FEB27031D822FEA30BE
:100EFA002702031D822F603026020318B12F2B0808
:100F0A008400F43080070130840A0318013E031D6F
:100F1A0080070030840A0318013E8007762FEB27EA
:100F2A00031D9D2F01302702031D9D2FF530260238
:100F3A00031CB12F2B088400F43080020130840A8C
:100F4A00031C023080020030840A031C0130800234
:100F5A0084038403762FAA012A08031908000230A1
:100F6A002A02031CD42F2B0884008313112325087B
:100F7A00FD0094260230F80001300F214E30F800AF
:100F8A008030F9004B210230F80001300F21831222
:100F9A0003132508F800F9014B21AA01AA0A4825DA
:100FAA002422B422A90048252422831203132908E3
:100FBA00033A0319B02F063A0319942F033A031977
:100FCA00792F013A0319B12FB12FB12F2B088400C1
:100FDA0083130008A600840A0008A700840A0008F0
:100FEA00A8000030280208003730831384004530F7
:060FFA00DA2083010B2D3B
:02400E0038FF79
:00000001FF
